{
    "contractName": "Bets",
    "abi": [
        {
            "anonymous": false,
            "inputs": [
                {
                    "indexed": true,
                    "internalType": "address",
                    "name": "previousOwner",
                    "type": "address"
                },
                {
                    "indexed": true,
                    "internalType": "address",
                    "name": "newOwner",
                    "type": "address"
                }
            ],
            "name": "OwnershipTransferred",
            "type": "event"
        },
        {
            "inputs": [],
            "name": "Disable",
            "outputs": [],
            "stateMutability": "nonpayable",
            "type": "function"
        },
        {
            "inputs": [],
            "name": "Enable",
            "outputs": [],
            "stateMutability": "nonpayable",
            "type": "function"
        },
        {
            "inputs": [],
            "name": "getBettableMatches",
            "outputs": [
                {
                    "internalType": "bytes32[]",
                    "name": "",
                    "type": "bytes32[]"
                }
            ],
            "stateMutability": "view",
            "type": "function"
        },
        {
            "inputs": [
                {
                    "internalType": "bytes32",
                    "name": "_matchId",
                    "type": "bytes32"
                }
            ],
            "name": "getMatch",
            "outputs": [
                {
                    "internalType": "bytes32",
                    "name": "id",
                    "type": "bytes32"
                },
                {
                    "internalType": "string",
                    "name": "name",
                    "type": "string"
                },
                {
                    "internalType": "string",
                    "name": "participants",
                    "type": "string"
                },
                {
                    "internalType": "uint8",
                    "name": "participantCount",
                    "type": "uint8"
                },
                {
                    "internalType": "uint256",
                    "name": "date",
                    "type": "uint256"
                },
                {
                    "internalType": "enum Oracle.MatchOutcome",
                    "name": "outcome",
                    "type": "uint8"
                },
                {
                    "internalType": "int8",
                    "name": "winner",
                    "type": "int8"
                }
            ],
            "stateMutability": "view",
            "type": "function"
        },
        {
            "inputs": [],
            "name": "getMatches",
            "outputs": [
                {
                    "internalType": "bytes32[]",
                    "name": "",
                    "type": "bytes32[]"
                }
            ],
            "stateMutability": "view",
            "type": "function"
        },
        {
            "inputs": [],
            "name": "getMostRecentMatch",
            "outputs": [
                {
                    "internalType": "bytes32",
                    "name": "id",
                    "type": "bytes32"
                },
                {
                    "internalType": "string",
                    "name": "name",
                    "type": "string"
                },
                {
                    "internalType": "string",
                    "name": "participants",
                    "type": "string"
                },
                {
                    "internalType": "uint256",
                    "name": "participantCount",
                    "type": "uint256"
                },
                {
                    "internalType": "uint256",
                    "name": "date",
                    "type": "uint256"
                },
                {
                    "internalType": "enum Oracle.MatchOutcome",
                    "name": "outcome",
                    "type": "uint8"
                },
                {
                    "internalType": "int8",
                    "name": "winner",
                    "type": "int8"
                }
            ],
            "stateMutability": "view",
            "type": "function"
        },
        {
            "inputs": [],
            "name": "getOracleAddress",
            "outputs": [
                {
                    "internalType": "address",
                    "name": "",
                    "type": "address"
                }
            ],
            "stateMutability": "view",
            "type": "function"
        },
        {
            "inputs": [
                {
                    "internalType": "bytes32",
                    "name": "_matchId",
                    "type": "bytes32"
                }
            ],
            "name": "getUserBet",
            "outputs": [
                {
                    "internalType": "uint256",
                    "name": "amount",
                    "type": "uint256"
                },
                {
                    "internalType": "uint8",
                    "name": "winner",
                    "type": "uint8"
                }
            ],
            "stateMutability": "view",
            "type": "function"
        },
        {
            "inputs": [],
            "name": "getUserBets",
            "outputs": [
                {
                    "internalType": "bytes32[]",
                    "name": "",
                    "type": "bytes32[]"
                }
            ],
            "stateMutability": "view",
            "type": "function"
        },
        {
            "inputs": [],
            "name": "owner",
            "outputs": [
                {
                    "internalType": "address",
                    "name": "",
                    "type": "address"
                }
            ],
            "stateMutability": "view",
            "type": "function"
        },
        {
            "inputs": [
                {
                    "internalType": "bytes32",
                    "name": "_matchId",
                    "type": "bytes32"
                },
                {
                    "internalType": "uint8",
                    "name": "_chosenWinner",
                    "type": "uint8"
                }
            ],
            "name": "placeBet",
            "outputs": [],
            "stateMutability": "payable",
            "type": "function"
        },
        {
            "inputs": [
                {
                    "internalType": "address",
                    "name": "_oracleAddress",
                    "type": "address"
                }
            ],
            "name": "setOracleAddress",
            "outputs": [
                {
                    "internalType": "bool",
                    "name": "",
                    "type": "bool"
                }
            ],
            "stateMutability": "nonpayable",
            "type": "function"
        },
        {
            "inputs": [],
            "name": "testOracleConnection",
            "outputs": [
                {
                    "internalType": "bool",
                    "name": "",
                    "type": "bool"
                }
            ],
            "stateMutability": "view",
            "type": "function"
        },
        {
            "inputs": [
                {
                    "internalType": "address",
                    "name": "newOwner",
                    "type": "address"
                }
            ],
            "name": "transferOwnership",
            "outputs": [],
            "stateMutability": "nonpayable",
            "type": "function"
        }
    ],
    "bytecode": "60808060405234606d575f80546001600160a81b0319163360ff60a01b1916179055600180546001600160a01b0319908116736dca9bb7da4c09930a466956e0a3e3f7fee1ef7d90811790925560028054909116909117905564e8d4a51000600355610b9390816100728239f35b5f80fdfe6080806040526004361015610012575f80fd5b5f3560e01c9081630e52bb491461058e5750806312074a461461052157806325a31135146104ee5780632c70120e1461049c5780632ce3707e1461044c5780633397741b146103d35780634c69c00f146103145780635b910190146102e55780638da5cb5b146102be57806399c8055d1461028f578063b18b78dd14610267578063ced1b708146101a7578063f2fde38b146101325763fcc6077d146100b6575f80fd5b3461012e57602036600319011261012e5760ff61012361010d6100da600435610a1b565b9597949891929690936100ff6040519a8b9a8b5260e060208c015260e08b01906107a2565b9089820360408b01526107a2565b95166060870152608086015260a08501906107c6565b5f0b60c08301520390f35b5f80fd5b3461012e57602036600319011261012e576004356001600160a01b0381169081900361012e575f546001600160a01b0381163381900361012e57821561012e5782907f8be0079c531659141344cd1fd0a4f28419497f9722a3daafe3b4186f6b6457e05f80a36001600160a01b031916175f55005b3461012e575f36600319011261012e5760025460405163176561eb60e31b815260016004820152905f90829060249082906001600160a01b03165afa801561025c575f5f915f905f915f5f915f93610221575b9060ff61010d61012394936100ff6040519a8b9a8b5260e060208c015260e08b01906107a2565b5050505050505060ff61010d61024b610123933d805f833e61024381836107d3565b810190610995565b9498508897509495509093916101fa565b6040513d5f823e3d90fd5b3461012e575f36600319011261012e576001546040516001600160a01b039091168152602090f35b3461012e575f36600319011261012e575f546001600160a01b0316330361012e575f805460ff60a01b19169055005b3461012e575f36600319011261012e575f546040516001600160a01b039091168152602090f35b3461012e57602036600319011261012e57604060ff6103056004356108d4565b83519182529091166020820152f35b3461012e57602036600319011261012e576004356001600160a01b0381169081900361012e575f546001600160a01b0316330361012e576020816004926001600160601b0360a01b6001541617600155806001600160601b0360a01b600254161760025560405192838092630d04a85760e21b82525afa801561025c576020915f916103a6575b506040519015158152f35b6103c69150823d84116103cc575b6103be81836107d3565b8101906107f5565b8261039b565b503d6103b4565b3461012e575f36600319011261012e57600254604051635f29d4b160e01b8152905f90829060049082906001600160a01b03165afa801561025c57610426915f9161042a575b5060405191829182610769565b0390f35b61044691503d805f833e61043e81836107d3565b81019061084f565b82610419565b3461012e575f36600319011261012e57600254604051630d04a85760e21b815290602090829060049082906001600160a01b03165afa801561025c576020915f916103a657506040519015158152f35b3461012e575f36600319011261012e5760025460405163c17c5a4560e01b8152905f90829060049082906001600160a01b03165afa801561025c57610426915f9161042a575060405191829182610769565b3461012e575f36600319011261012e575f546001600160a01b038116330361012e5760ff60a01b1916600160a01b175f55005b3461012e575f36600319011261012e57335f52600460205260405f206040519081602082549182815201915f5260205f20905f5b818110610578576104268561056c818703826107d3565b60405191829182610769565b8254845260209093019260019283019201610555565b604036600319011261012e576004359060243560ff81169182820361012e5760ff5f5460a01c1661012e57600354341061012e576002546302a4d14960e61b825260048201859052602090829060249082906001600160a01b03165afa90811561025c575f9161074a575b501561012e5761060a908333610a92565b1561012e5761061882610a1b565b5094505050505060048110156107365761012e57815f52600560205260405f206040516080810181811067ffffffffffffffff82111761070f5760405233815260208101918483526040820190348252606083019485528054600160401b81101561070f5761068c9160018201815561080d565b9190916107235760ff9360039360018060a01b039051166001600160601b0360a01b8454161783555160018301555160028201550191511660ff19825416179055335f52600460205260405f208054600160401b81101561070f576106f69160018201815561083a565b819291549060031b91821b915f19901b19161790555f80f35b634e487b7160e01b5f52604160045260245ffd5b634e487b7160e01b5f525f60045260245ffd5b634e487b7160e01b5f52602160045260245ffd5b610763915060203d6020116103cc576103be81836107d3565b846105f9565b60206040818301928281528451809452019201905f5b81811061078c5750505090565b825184526020938401939092019160010161077f565b805180835260209291819084018484015e5f828201840152601f01601f1916010190565b9060048210156107365752565b90601f8019910116810190811067ffffffffffffffff82111761070f57604052565b9081602091031261012e5751801515810361012e5790565b8054821015610826575f5260205f209060021b01905f90565b634e487b7160e01b5f52603260045260245ffd5b8054821015610826575f5260205f2001905f90565b60208183031261012e5780519067ffffffffffffffff821161012e57019080601f8301121561012e5781519167ffffffffffffffff831161070f578260051b90604051936108a060208401866107d3565b845260208085019282010192831161012e57602001905b8282106108c45750505090565b81518152602091820191016108b7565b5f52600560205260405f205f8154905b8181106108f4575050505f905f90565b6108fe818461080d565b50546001600160a01b03163314610917576001016108e4565b60ff915061093881600261092f60039487989761080d565b5001549561080d565b5001541690565b81601f8201121561012e5780519067ffffffffffffffff821161070f5760405192610974601f8401601f1916602001856107d3565b8284526020838301011161012e57815f9260208093018386015e8301015290565b9160e08383031261012e57825192602081015167ffffffffffffffff811161012e57836109c391830161093f565b9260408201519067ffffffffffffffff821161012e576109e491830161093f565b91606082015160ff8116810361012e579160808101519160a0820151600481101561012e5760c090920151805f0b810361012e5790565b905f60018060a01b03600254169260246040518095819363fcc6077d60e01b835260048301525afa90811561025c575f5f935f935f935f935f935f93610a66575b5096959493929190565b9550509550505050610a8291503d805f833e61024381836107d3565b949693959294919390925f610a5c565b6001600160a01b03165f90815260046020526040902080549081610b26575b505060025460405163fcc6077d60e01b815260048101929092525f90829060249082906001600160a01b03165afa90811561025c5760ff9182915f91610b05575b501691161015610b0157600190565b5f90565b610b1991503d805f833e61024381836107d3565b505050925050505f610af2565b5f5b828110610b355750610ab1565b83610b40828461083a565b90549060031b1c14610b5457600101610b28565b50505050505f9056fea26469706673582212200fac73787ab954b456e4f62c2a97ec793838455206f08b915e2d9591e1dafef364736f6c634300081c0033",
    "sourcePath": "/Users/shrithansandadi/Desktop/betflow/backend/contracts/Bets.sol",
    "compiler": {
        "name": "solc",
        "version": "0.8.28+commit.7893614a"
    },
    "functionHashes": {
        "Disable()": "25a31135",
        "Enable()": "99c8055d",
        "getBettableMatches()": "3397741b",
        "getMatch(bytes32)": "fcc6077d",
        "getMatches()": "2c70120e",
        "getMostRecentMatch()": "ced1b708",
        "getOracleAddress()": "b18b78dd",
        "getUserBet(bytes32)": "5b910190",
        "getUserBets()": "12074a46",
        "owner()": "8da5cb5b",
        "placeBet(bytes32,uint8)": "0e52bb49",
        "setOracleAddress(address)": "4c69c00f",
        "testOracleConnection()": "2ce3707e",
        "transferOwnership(address)": "f2fde38b"
    },
    "gasEstimates": {
        "creation": {
            "codeDepositCost": "592600",
            "executionCost": "95466",
            "totalCost": "688066"
        },
        "external": {
            "Disable()": "24443",
            "Enable()": "26688",
            "getBettableMatches()": "infinite",
            "getMatch(bytes32)": "infinite",
            "getMatches()": "infinite",
            "getMostRecentMatch()": "infinite",
            "getOracleAddress()": "2500",
            "getUserBet(bytes32)": "infinite",
            "getUserBets()": "infinite",
            "owner()": "2455",
            "placeBet(bytes32,uint8)": "infinite",
            "setOracleAddress(address)": "infinite",
            "testOracleConnection()": "infinite",
            "transferOwnership(address)": "26252"
        },
        "internal": {
            "_betIsValid(address,bytes32,uint8)": "infinite",
            "_matchOpenForBetting(bytes32)": "infinite"
        }
    }
}